:100000000C945E000C9486000C9486000C94860080
:100010000C9486000C9486000C9486000C94860048
:100020000C9486000C9486000C9486000C94860038
:100030000C9486000C9486000C9486000C94860028
:100040000C941C030C9486000C94EA020C94C402D9
:100050000C9486000C9486000C9486000C94860008
:100060000C9486000C948600000000080002010039
:100070000003040700000000000000000000000072
:10008000250028002B0000000000240027002A0083
:10009000040404040404040402020202020203032E
:1000A0000303030301020408102040800102040836
:1000B00010200102040810206603610511241FBEF0
:1000C000CFEFD8E0DEBFCDBF22E0ACE0B2E001C0B0
:1000D0001D92A83CB207E1F712E0A0E0B1E0E0E930
:1000E000FFE002C005900D92AC30B107D9F710E0E7
:1000F000CDE5D0E004C02197FE010E94C305CC35B8
:10010000D107C9F70E94FA030C94BB070C940000B6
:100110002091C2023091C3028217930760F42091AC
:10012000BE023091BF022115310529F0280F391F79
:10013000F9018081089580E00895AF92BF92CF9237
:10014000DF92EF92FF920F931F93CF93DF936C0197
:100150007B018B01040F151FEB015E01AE18BF0878
:10016000C017D10759F06991D601ED91FC9101902A
:10017000F081E02DC6010995892B79F7C501DF9142
:10018000CF911F910F91FF90EF90DF90CF90BF9094
:10019000AF900895FC01538D448D252F30E0842FBE
:1001A00090E0821B930B541710F0CF96089501979F
:1001B0000895FC01918D828D981761F0A28DAE0F8C
:1001C000BF2FB11D5D968C91928D9F5F9F73928F13
:1001D00090E008958FEF9FEF0895FC01918D828D3F
:1001E000981731F0828DE80FF11D858D90E008950C
:1001F0008FEF9FEF0895FC01918D228D892F90E064
:10020000805C9F4F821B91098F73992708958FE11E
:1002100092E00E94FB0021E0892B09F420E0822F6C
:10022000089580E090E0892B29F00E940701811158
:100230000C9400000895FC01A48DA80FB92FB11DE6
:10024000A35ABF4F2C91848D90E001968F7399270C
:10025000848FA689B7892C93A089B1898C918370EA
:1002600080648C93938D848D981306C00288F389E3
:10027000E02D80818F7D80830895EF92FF920F9310
:100280001F93CF93DF93EC0181E0888F9B8D8C8D42
:1002900098131AC0E889F989808185FF15C09FB736
:1002A000F894EE89FF896083E889F98980818370F9
:1002B000806480839FBF81E090E0DF91CF911F91A8
:1002C0000F91FF90EF900895F62E0B8D10E00F5FC9
:1002D0001F4F0F731127E02E8C8D8E110CC00FB69F
:1002E00007FCFACFE889F989808185FFF5CFCE0137
:1002F0000E941B01F1CFEB8DEC0FFD2FF11DE35A96
:10030000FF4FF0829FB7F8940B8FEA89FB898081B9
:100310008062CFCFCF93DF93EC01888D8823B9F033
:10032000AA89BB89E889F9898C9185FD03C0808100
:1003300086FD0DC00FB607FCF7CF8C9185FFF2CF7D
:10034000808185FFEDCFCE010E941B01E9CFDF91B7
:10035000CF91089590E0FC01E859FF4F2491FC01F2
:10036000EC55FF4F3491FC01E057FF4FE491EE2331
:10037000C9F0222339F0233001F1A8F4213019F11A
:10038000223029F1F0E0EE0FFF1FE458FF4FA59156
:10039000B4918FB7F894EC91611126C030953E234B
:1003A0003C938FBF08952730A9F02830C9F024303E
:1003B00049F7809180008F7D03C0809180008F7706
:1003C00080938000DFCF84B58F7784BDDBCF84B589
:1003D0008F7DFBCF8091B0008F778093B000D2CF1C
:1003E0008091B0008F7DF9CF3E2BDACF2F923F92D4
:1003F0004F925F926F927F928F929F92AF92BF9235
:10040000CF92DF92EF92FF920F931F93CF93DF93E0
:1004100000D000D0CDB7DEB76C018CE090E09C83BB
:100420008B83260198E0490E511C2BE9622E2FE0A8
:10043000722E9EEDA92E91E0B92E10E000E0F5019C
:1004400031905F0161E0832D0E94AA01760186ED63
:10045000882E81E0982E8B819C81801B910B9A8342
:100460008983F70161917F01F40121904F0170E0D0
:1004700060957095098002C0759567950A94E2F7BA
:100480006170822D0E94AA01C3010197F1F761E01A
:10049000822D0E94AA01E414F50419F760E0832D6F
:1004A0000E94AA010F5F1F4F0830110541F68B8192
:1004B0009C8101979C838B83892B09F0BACF0F9085
:1004C0000F900F900F90DF91CF911F910F91FF90A0
:1004D000EF90DF90CF90BF90AF909F908F907F90E4
:1004E0006F905F904F903F902F9008958F929F92C2
:1004F000AF92BF920F931F93CF93DF93CDB7DEB729
:10050000A1970FB6F894DEBF0FBECDBF19A242303F
:1005100008F44AE08E010F5D1F4F842E912CB12C00
:10052000A12CA50194010E94A105E62FB901CA01E1
:10053000EA3044F5E05DD801EE938D01232B242BA6
:10054000252B79F790E080E0109769F0FD0101908C
:100550000020E9F73197AF014A1B5B0BBD018FE12A
:1005600092E00E949D00A1960FB6F894DEBF0FBEE8
:10057000CDBFDF91CF911F910F91BF90AF909F9012
:100580008F900895E95CD7CF1F920F920FB60F920C
:1005900011242F933F934F935F936F937F938F9388
:1005A0009F93AF93BF93EF93FF938FE192E00E94ED
:1005B0001B01FF91EF91BF91AF919F918F917F911F
:1005C0006F915F914F913F912F910F900FBE0F90C0
:1005D0001F9018951F920F920FB60F9211242F9310
:1005E0008F939F93EF93FF93E0912F02F09130024E
:1005F0008081E0913502F091360282FD1BC090812E
:10060000809138028F5F8F7320913902821741F0F9
:10061000E0913802F0E0E15EFD4F958F8093380263
:10062000FF91EF919F918F912F910F900FBE0F909F
:100630001F9018958081F4CF1F920F920FB60F92E2
:1006400011242F933F938F939F93AF93BF938091E8
:10065000110290911202A0911302B09114023091F4
:10066000100223E0230F2D3758F50196A11DB11D6F
:10067000209310028093110290931202A093130210
:10068000B093140280910C0290910D02A0910E0281
:10069000B0910F020196A11DB11D80930C029093A1
:1006A0000D02A0930E02B0930F02BF91AF919F91E4
:1006B0008F913F912F910F900FBE0F901F90189523
:1006C00026E8230F0296A11DB11DD2CF109222025F
:1006D0001092210288EE93E0A0E0B0E08093230224
:1006E00090932402A0932502B09326028AEE91E013
:1006F0009093200280931F0285EC90E090932C024F
:1007000080932B0284EC90E090932E0280932D0234
:1007100080EC90E09093300280932F0281EC90E087
:10072000909332028093310282EC90E090933402F5
:100730008093330286EC90E09093360280933502EA
:10074000109238021092390210923A0210923B0233
:100750001092BF021092BE021092C1021092C0020B
:100760001092C3021092C20260E170E090E080E05B
:100770000E94EE06009709F19093BF028093BE029B
:100780002FE030E03093C1022093C0022091C202DA
:100790003091C302232B11F4FC0110828FE090E012
:1007A0009093C3028093C20268EF71E08091BE0211
:1007B0009091BF020E94B40714C08091BE02909134
:1007C000BF02009711F00E9465061092BF021092BE
:1007D000BE021092C3021092C2021092C102109285
:1007E000C0028091C2029091C3029093BD02809397
:1007F000BC020895789484B5826084BD84B581601C
:1008000084BD85B5826085BD85B5816085BD8091DB
:100810006E00816080936E00109281008091810053
:10082000826080938100809181008160809381004B
:10083000809180008160809380008091B10084600D
:100840008093B1008091B00081608093B00080916E
:100850007A00846080937A0080917A00826080932D
:100860007A0080917A00816080937A0080917A008A
:10087000806880937A001092C100E0912F02F0917D
:10088000300282E08083E0912B02F0912C021082F2
:10089000E0912D02F0912E028FEC808310923702AE
:1008A000E0913302F091340286E08083E0913102DE
:1008B000F0913202808180618083E0913102F09179
:1008C0003202808188608083E0913102F0913202AF
:1008D000808180688083E0913102F09132028081D2
:1008E0008F7D808324E030E0F901EC55FF4F449187
:1008F000F901E057FF4F8491882399F090E0880F29
:10090000991FFC01EA57FF4FA591B491FC01E458EF
:10091000FF4F859194918FB7F894EC91E42BEC9371
:100920008FBF2F5F3F4F26313105F1F6C0E0D0E099
:1009300010E06091BC027091BD02161717060CF012
:10094000B5C0072E000C880B990B4AE00E94760276
:1009500042E050E068E072E08FE192E00E949D008A
:1009600080911D0290911E022091BC023091BD0227
:10097000821793079CF4019690931E0280931D02A8
:1009800080911D0290911E020E948800803259F4CD
:1009900085E192E00E94F6011F5FCBCF10921E020C
:1009A00010921D02EDCF813419F488EC91E0F2CF62
:1009B000823419F480EC91E0EDCF833419F488EBA4
:1009C00091E0E8CF843419F480EB91E0E3CF8534F3
:1009D00019F488EA91E0DECF863419F480EA91E0D8
:1009E000D9CF873419F488E991E0D4CF883419F449
:1009F00080E991E0CFCF893419F488E891E0CACF3B
:100A00008A3419F480E891E0C5CF8B3419F488E773
:100A100091E0C0CF8C3419F480E791E0BBCF8D34E6
:100A200019F488E691E0B6CF8E3419F480E691E0AF
:100A3000B1CF8F3419F488E591E0ACCF803519F44B
:100A400080E591E0A7CF813519F488E491E0A2CF49
:100A5000823519F480E491E09DCF833519F488E361
:100A600091E098CF843519F480E391E093CF8535F8
:100A700019F488E291E08ECF863519F480E291E096
:100A800089CF873519F488E191E084CF883519F44E
:100A900080E191E07FCF893519F488E091E07ACF49
:100AA0008A3509F079CF80E091E074CF209709F47E
:100AB0003FCF0E940701882309F43ACF0E9400002B
:100AC00037CF8091BE029091BF02009711F00C9435
:100AD000650608952F923F924F925F926F927F9298
:100AE0008F929F92AF92BF92CF92DF92EF92FF923E
:100AF0000F931F93CF93DF93CDB7DEB7CA1BDB0BEA
:100B00000FB6F894DEBF0FBECDBF09942A8839888E
:100B100048885F846E847D848C849B84AA84B98495
:100B2000C884DF80EE80FD800C811B81AA81B981A1
:100B3000CE0FD11D0FB6F894DEBF0FBECDBFED01B5
:100B40000895A1E21A2EAA1BBB1BFD010DC0AA1F0E
:100B5000BB1FEE1FFF1FA217B307E407F50720F026
:100B6000A21BB30BE40BF50B661F771F881F991FA1
:100B70001A9469F760957095809590959B01AC01EA
:100B8000BD01CF010895EE0FFF1F0590F491E02DF8
:100B900009940F931F93CF93DF938230910510F444
:100BA00082E090E0E091C602F091C70230E020E0E0
:100BB000B0E0A0E0309799F42115310509F44AC05E
:100BC000281B390B24303105D8F58A819B816115AA
:100BD000710589F1FB0193838283FE0111C040817D
:100BE00051810281138148175907E0F048175907CE
:100BF00099F4109761F012960C93129713961C9328
:100C00003296CF01DF91CF911F910F9108950093FC
:100C1000C6021093C702F4CF2115310551F04217D7
:100C2000530738F0A901DB019A01BD01DF01F8018A
:100C3000C1CFEF01F9CF9093C7028093C602CDCF09
:100C4000FE01E20FF31F8193919322503109398302
:100C50002883D7CF2091C4023091C502232B41F4C1
:100C60002091D2013091D3013093C5022093C40268
:100C70002091D0013091D1012115310541F42DB7DA
:100C80003EB74091D4015091D501241B350BE09122
:100C9000C402F091C502E217F307A0F42E1B3F0B2C
:100CA0002817390778F0AC014E5F5F4F24173507DE
:100CB00048F04E0F5F1F5093C5024093C4028193CA
:100CC00091939FCFF0E0E0E09CCFCF93DF9300972C
:100CD000E9F0FC01329713821282A091C602B09112
:100CE000C702ED0130E020E01097A1F420813181AE
:100CF000820F931F2091C4023091C5022817390733
:100D000009F061C0F093C502E093C402DF91CF9176
:100D10000895EA01CE17DF07E8F54A815B819E015D
:100D200041155105B1F7E901FB83EA8349915991D6
:100D3000C40FD51FEC17FD0761F4808191810296E5
:100D4000840F951FE90199838883828193819B8316
:100D50008A83F0E0E0E012968D919C9113970097C2
:100D6000B9F52D913C911197CD010296820F931FF9
:100D70002091C4023091C5022817390739F63097FF
:100D800051F51092C7021092C602B093C502A0930B
:100D9000C402BCCFD383C28340815181840F951F8D
:100DA000C817D90761F44E5F5F4F88819981480F5A
:100DB000591F518340838A819B81938382832115AC
:100DC000310509F0B0CFF093C702E093C6029ECF81
:100DD000FD01DC01C0CF13821282D7CFB0E0A0E0CA
:100DE000E4EFF6E00C946C058C01009751F4CB0114
:100DF0000E94C9058C01C801CDB7DEB7E0E10C94B3
:100E00008805FC01E60FF71F9C0122503109E2170B
:100E1000F30708F49DC0D901CD91DC911197C61755
:100E2000D70798F0C530D10530F3CE010497861767
:100E3000970708F3C61BD70B2297C193D1936D93E5
:100E40007C93CF010E946506D6CF5B01AC1ABD0A28
:100E50004C018C0E9D1EA091C602B091C702512C70
:100E6000412CF12CE12C109731F58091C402909126
:100E7000C5028815990509F05CC04616570608F0AA
:100E800058C08091D0019091D101009741F48DB765
:100E90009EB74091D4015091D501841B950BE81762
:100EA000F90708F055C0F093C502E093C402F901B8
:100EB00071836083A0CF8D919C91119712966C9055
:100EC000129713967C901397A815B90559F56C01E4
:100ED00042E0C40ED11CCA14DB0420F1AC014A1953
:100EE0005B09DA011296159780F062827382518352
:100EF0004083D9016D937C93E114F10471F0D70123
:100F00001396FC93EE93129776CF22968C0F9D1F2B
:100F1000F90191838083F301EFCFF093C702E0934F
:100F2000C60269CF4816590608F42C017D01D30189
:100F30009ACFCB010E94C9057C01009749F0AE0110
:100F4000B8010E94AB07C8010E946506870153CF14
:100F500010E000E050CFFB01DC0102C001900D92D7
:100F600041505040D8F70895FB01DC0101900D92EB
:100F70000020E1F7089510E0CDE5D0E004C0FE01C7
:100F80000E94C3052196CE35D107C9F7F894FFCF4B
:100F9000003C040810203C000044281010101000F1
:100FA0000042241818244200008292545428000061
:100FB0000022222214140800004242424224180057
:100FC000007C101010101000003C203C04043C0079
:100FD0000038242438242400003C424242463E018A
:100FE0000038242438202000003C424242423C0089
:100FF0000022322A26220000000044AA92828200A7
:101000000020202020203C00002428302824240018
:10101000001C08080828380000381010101038008C
:101020000024243C24242400003E20202E223E00C4
:10103000003C203820202000003C203820203C00AC
:101040000038242222243800001E20404040201E68
:10105000784848704844447C003C66667E66666614
:101060000000C80280000405060708090A0B0C0DE1
:101070000E0F10111213000000003D019D00CA0068
:101080008A01FB00D900ED0041204220432044208A
:0C10900045204620472048000D0A0000C3
:00000001FF
