:020000040000FA
:100000000C945D000C9485000C9485000C94850084
:100010000C9485000C9485000C9485000C9485004C
:100020000C9485000C9485000C9485000C9485003C
:100030000C9485000C9485000C9485000C9485002C
:100040000C943B030C9485000C9409030C94E3027C
:100050000C9485000C9485000C9485000C9485000C
:100060000C9485000C94850000000008000201003B
:100070000003040700000000000000000000000072
:10008000250028002B0000000000240027002A0083
:10009000040404040404040402020202020203032E
:1000A0000303030301020408102040800102040836
:1000B0001020010204081020460511241FBECFEFB6
:1000C000D8E0DEBFCDBF22E0ACE3B2E001C01D92BC
:1000D000A93EB207E1F712E0A0E0B1E0E8E4FFE0FA
:1000E00002C005900D92AC33B107D9F710E0CDE511
:1000F000D0E004C02197FE010E94AA05CC35D107AB
:10010000C9F70E9485030C94A2070C94000090E0AC
:10011000FC01EC55FF4F249180579F4FFC018491C7
:10012000882399F090E0880F991FFC01EA57FF4F50
:10013000A591B491FC01E458FF4F859194918FB73C
:10014000F894EC91E22BEC938FBF0895AF92BF929D
:10015000CF92DF92EF92FF920F931F93CF93DF9393
:100160006C017B018B01040F151FEB015E01AE18C2
:10017000BF08C017D10759F06991D601ED91FC91E4
:100180000190F081E02DC6010995892B79F7C50111
:10019000DF91CF911F910F91FF90EF90DF90CF9063
:1001A000BF90AF900895FC01538D448D252F30E012
:1001B000842F90E0821B930B541710F0CF96089574
:1001C00001970895FC01918D828D981761F0A28DA1
:1001D000AE0FBF2FB11D5D968C91928D9F5F9F7367
:1001E000928F90E008958FEF9FEF0895FC01918D1D
:1001F000828D981731F0828DE80FF11D858D90E08A
:1002000008958FEF9FEF0895FC01918D228D892F26
:1002100090E0805C9F4F821B91098F73992708950E
:1002200085E492E00E94040121E0892B09F420E09A
:10023000822F089580E090E0892B29F00E94100120
:1002400081110C9400000895FC01A48DA80FB92F12
:10025000B11DA35ABF4F2C91848D90E001968F73EE
:100260009927848FA689B7892C93A089B1898C910D
:10027000837080648C93938D848D981306C002885C
:10028000F389E02D80818F7D80830895EF92FF9226
:100290000F931F93CF93DF93EC0181E0888F9B8DA9
:1002A0008C8D98131AC0E889F989808185FF15C063
:1002B0009FB7F894EE89FF896083E889F989808186
:1002C0008370806480839FBF81E090E0DF91CF9155
:1002D0001F910F91FF90EF900895F62E0B8D10E077
:1002E0000F5F1F4F0F731127E02E8C8D8E110CC0E6
:1002F0000FB607FCFACFE889F989808185FFF5CF31
:10030000CE010E942401F1CFEB8DEC0FFD2FF11DEA
:10031000E35AFF4FF0829FB7F8940B8FEA89FB896D
:1003200080818062CFCFCF93DF93EC01888D8823CB
:10033000B9F0AA89BB89E889F9898C9185FD03C048
:10034000808186FD0DC00FB607FCF7CF8C9185FF2D
:10035000F2CF808185FFEDCFCE010E942401E9CF4D
:10036000DF91CF91089590E0FC01E859FF4F24916F
:10037000FC01EC55FF4F3491FC01E057FF4FE49135
:10038000EE23C9F0222339F0233001F1A8F4213003
:1003900019F1223029F1F0E0EE0FFF1FE458FF4F72
:1003A000A591B4918FB7F894EC91611126C0309566
:1003B0003E233C938FBF08952730A9F02830C9F021
:1003C000243049F7809180008F7D03C080918000A8
:1003D0008F7780938000DFCF84B58F7784BDDBCFAC
:1003E00084B58F7DFBCF8091B0008F778093B00074
:1003F000D2CF8091B0008F7DF9CF3E2BDACF3FB7BF
:10040000F8948091410290914202A0914302B091F0
:10041000440226B5A89B05C02F3F19F00196A11DE7
:10042000B11D3FBFBA2FA92F982F8827BC01CD013E
:10043000620F711D811D911D42E0660F771F881F9D
:10044000991F4A95D1F708958F929F92AF92BF92CC
:10045000CF92DF92EF92FF924B015C010E94FF016D
:100460006B017C010E94FF016C197D098E099F09B7
:10047000683E734081059105A8F321E0821A910836
:10048000A108B10888EEC80E83E0D81EE11CF11C5B
:1004900081149104A104B10429F7FF90EF90DF903B
:1004A000CF90BF90AF909F908F900895CF93DF93A0
:1004B000CDB7DEB7C058D1400FB6F894DEBF0FBE3F
:1004C000CDBF90E8E6E0F1E0DE01119601900D92DB
:1004D0009A95E1F790E8E6E8F1E0DE01AF57BF4F0B
:1004E00001900D929A95E1F7FE01EF5FFE4F90E8C3
:1004F000DF011D929A95E9F721E030E031872087EE
:1005000033872287378B268B35A324A335AB24ABC7
:10051000CB5BDE4F39832883C554D140CB5ADE4FA5
:1005200039832883C555D140C959DE4F3983288383
:10053000C756D140C758DE4F39832883C957D140A9
:10054000C558DE4F39832883CB57D140823601F11D
:10055000833651F18136B1F5E3E0660F771FEA95F6
:10056000E1F7640F751F660F771FE1E0F0E0EC0F15
:10057000FD1F6E0F7F1FDB018D919C91C058DE4FD8
:100580000FB6F894DEBF0FBECDBFDF91CF910895B7
:1005900023E0660F771F2A95E1F7640F751F660F3A
:1005A000771FE1E8F0E0E3CF83E0660F771F8A95DD
:1005B000E1F7640F751F660F771FE60FF71F808145
:1005C0009181DCCFDBCF1F920F920FB60F921124D7
:1005D0002F933F934F935F936F937F938F939F934B
:1005E000AF93BF93EF93FF9385E492E00E942401C1
:1005F000FF91EF91BF91AF919F918F917F916F91FB
:100600005F914F913F912F910F900FBE0F901F90D0
:1006100018951F920F920FB60F9211242F938F935C
:100620009F93EF93FF93E0915502F09156028081E2
:10063000E0915B02F0915C0282FD1BC09081809191
:100640005E028F5F8F7320915F02821741F0E0910D
:100650005E02F0E0EB5BFD4F958F80935E02FF91B1
:10066000EF919F918F912F910F900FBE0F901F9040
:1006700018958081F4CF1F920F920FB60F9211241C
:100680002F933F938F939F93AF93BF9380913D029E
:1006900090913E02A0913F02B091400230913C0205
:1006A00023E0230F2D3758F50196A11DB11D20938E
:1006B0003C0280933D0290933E02A0933F02B09390
:1006C00040028091410290914202A0914302B09178
:1006D00044020196A11DB11D8093410290934202F4
:1006E000A0934302B0934402BF91AF919F918F9129
:1006F0003F912F910F900FBE0F901F90189526E8F5
:10070000230F0296A11DB11DD2CFCF93DF9300D04E
:1007100000D000D0CDB7DEB7789484B5826084BDB8
:1007200084B5816084BD85B5826085BD85B58160F5
:1007300085BD80916E00816080936E001092810073
:10074000809181008260809381008091810081602E
:1007500080938100809180008160809380008091EF
:10076000B10084608093B1008091B000816080937B
:10077000B00080917A00846080937A0080917A0042
:10078000826080937A0080917A00816080937A0001
:1007900080917A00806880937A001092C10008E20C
:1007A00012E068E1A62E62E0B62EF501F080F2E0DC
:1007B000AF0EB11C8F2D0E948700F80180810E5F63
:1007C0001F4F0E94870061E08F2D0E94B301F8E265
:1007D000AF16F2E0BF0649F7E0915502F0915602DC
:1007E00082E08083E0915102F09152021082E09108
:1007F0005302F09154028FEC808310925D02E091DD
:100800005902F0915A0286E08083E0915702F091FC
:100810005802808180618083E0915702F0915802F4
:10082000808188608083E0915702F0915802808136
:1008300080688083E0915702F091580280818F7D1B
:1008400080832DB73EB73E832D838091E302909144
:10085000E40201969093E4028093E30264E070E086
:1008600090E080E00E94D5067C01912C812C0097BD
:1008700049F0FC01108268E372E00E949B0753E09C
:10088000852E912C2DB73EB7205831400FB6F894E5
:100890003EBF0FBE2DBF8DB79EB701969A83898349
:1008A0003C0110E000E0512C412CD12CC12C18014E
:1008B0009FEF291A390AC10143E0880F991F4A9511
:1008C000E1F7C816D9067CF58016910609F4D6C062
:1008D000B201601B710B0197F601EE0FFF1FFC8345
:1008E000EB838C159D0509F0ABC00815190530F494
:1008F000F701E00FF11FE114F10421F41092E2027C
:10090000E2EEF2E0A60180810E945602EB81FC81BA
:10091000E60DF71D9183808363E070E080E090E056
:100920000E9424028101FFEFCF1ADF0A28E1C216DC
:10093000D10409F0BCCF3FEF431A530A80E3680E9D
:10094000711C98E04916510409F0AFCF8091E30281
:100950009091E402893C91050CF093C028E2C22EEC
:1009600022E0D22E10E000E0F601E00FF11F5080EF
:1009700061E0852D0E94B30169807A80600E711E4E
:10098000912C812CF30180819181019749F4F4012C
:10099000EE0FFF1FE85EFD4F60E080810E94B30113
:1009A000FFEF8F1A9F0A20E3620E711C38E0831656
:1009B000910441F78BE39FE10197F1F760E0852D0A
:1009C0000E94B30188E1882E82E0982EF401808194
:1009D000F2E08F0E911C61E00E94B301A814B904EB
:1009E000A9F70E5F1F4F0033110509F0BDCF6FE06F
:1009F00070E080E090E00E94240222E0C21AD10858
:100A000036EFC31631E0D30609F0ACCFE114F104A0
:100A100019F0C7010E944C068D819E810FB6F89493
:100A20009EBF0FBE8DBFE0E0F0E0EF2B09F409CFD1
:100A30000E941001882309F404CF0E94000001CF16
:100A40000815190530F4F701E00FF11FE114F10466
:100A500021F41092E202E2EEF2E0A60180810E940F
:100A60005602EB81FC81E60DF71D9183808363E0E4
:100A700070E080E090E00E94240255CF10E000E09A
:100A800052CF1092E4021092E302C0CFE5E4F2E00C
:100A90001382128288EE93E0A0E0B0E08483958315
:100AA000A683B7838AE092E09183808385EC90E00F
:100AB0009587848784EC90E09787868780EC90E028
:100AC000918B808B81EC90E0938B828B82EC90E019
:100AD000958B848B86EC90E0978B868B118E128E93
:100AE000138E148E08952F923F924F925F926F92C1
:100AF0007F928F929F92AF92BF92CF92DF92EF92AE
:100B0000FF920F931F93CF93DF93CDB7DEB7CA1B2E
:100B1000DB0B0FB6F894DEBF0FBECDBF09942A8859
:100B2000398848885F846E847D848C849B84AA8401
:100B3000B984C884DF80EE80FD800C811B81AA818E
:100B4000B981CE0FD11D0FB6F894DEBF0FBECDBF59
:100B5000ED010895EE0FFF1F0590F491E02D09942B
:100B60000F931F93CF93DF938230910510F482E0AF
:100B700090E0E091E702F091E80230E020E0B0E0A0
:100B8000A0E0309799F42115310509F44AC0281BDB
:100B9000390B24303105D8F58A819B8161157105A7
:100BA00089F1FB0193838283FE0111C04081518151
:100BB0000281138148175907E0F04817590799F443
:100BC000109761F012960C93129713961C9332961D
:100BD000CF01DF91CF911F910F9108950093E7020C
:100BE0001093E802F4CF2115310551F04217530755
:100BF00038F0A901DB019A01BD01DF01F801C1CF85
:100C0000EF01F9CF9093E8028093E702CDCFFE0188
:100C1000E20FF31F81939193225031093983288386
:100C2000D7CF2091E5023091E602232B41F42091A9
:100C30000201309103013093E6022093E5022091F6
:100C40000001309101012115310541F42DB73EB766
:100C50004091040150910501241B350BE091E50200
:100C6000F091E602E217F307A0F42E1B3F0B2817C2
:100C7000390778F0AC014E5F5F4F2417350748F015
:100C80004E0F5F1F5093E6024093E50281939193CC
:100C90009FCFF0E0E0E09CCFCF93DF930097E9F0A7
:100CA000FC01329713821282A091E702B091E80210
:100CB000ED0130E020E01097A1F420813181820F16
:100CC000931F2091E5023091E6022817390709F0B9
:100CD00061C0F093E602E093E502DF91CF910895C1
:100CE000EA01CE17DF07E8F54A815B819E014115D5
:100CF0005105B1F7E901FB83EA8349915991C40F8A
:100D0000D51FEC17FD0761F4808191810296840F55
:100D1000951FE90199838883828193819B838A83CC
:100D2000F0E0E0E012968D919C9113970097B9F551
:100D30002D913C911197CD010296820F931F209126
:100D4000E5023091E6022817390739F6309751F558
:100D50001092E8021092E702B093E602A093E50237
:100D6000BCCFD383C28340815181840F951FC817A4
:100D7000D90761F44E5F5F4F88819981480F591FF1
:100D8000518340838A819B8193838283211531051E
:100D900009F0B0CFF093E802E093E7029ECFFD01A7
:100DA000DC01C0CF13821282D7CFB0E0A0E0EBED20
:100DB000F6E00C9475058C01009751F4CB010E946C
:100DC000B0058C01C801CDB7DEB7E0E10C94910508
:100DD000FC01E60FF71F9C0122503109E217F307CF
:100DE00008F49DC0D901CD91DC911197C617D707A2
:100DF00098F0C530D10530F3CE01049786179707D8
:100E000008F3C61BD70B2297C193D1936D937C93A4
:100E1000CF010E944C06D6CF5B01AC1ABD0A4C0133
:100E20008C0E9D1EA091E702B091E802512C412C3E
:100E3000F12CE12C109731F58091E5029091E602BA
:100E40008815990509F05CC04616570608F058C089
:100E50008091000190910101009741F48DB79EB7F8
:100E60004091040150910501841B950BE817F90787
:100E700008F055C0F093E602E093E502F9017183B2
:100E80006083A0CF8D919C91119712966C901297D0
:100E900013967C901397A815B90559F56C0142E09B
:100EA000C40ED11CCA14DB0420F1AC014A195B0941
:100EB000DA011296159780F0628273825183408323
:100EC000D9016D937C93E114F10471F0D70113966D
:100ED000FC93EE93129776CF22968C0F9D1FF9010B
:100EE00091838083F301EFCFF093E802E093E70270
:100EF00069CF4816590608F42C017D01D3019ACF19
:100F0000CB010E94B0057C01009749F0AE01B80109
:100F10000E949207C8010E944C06870153CF10E03F
:100F200000E050CFFB01DC0102C001900D92415066
:100F30005040D8F70895FB01DC0101900D9200208C
:100F4000E1F70895F894FFCF0000E9028000000067
:100F5000000000000100010000000000000000008F
:100F6000000001000000000001000000000000007F
:100F7000000001000000000001000000000000006F
:100F8000000001000000000001000000000000005F
:100F9000000001000100010001000000000000004D
:100FA000000001000000000001000000000000003F
:100FB000000001000000000001000000000000002F
:100FC000000001000000000001000000000000001F
:100FD000000000000100010000000000000000000F
:100FE00000000100000000000100000000000000FF
:100FF00000000100000000000100000000000000EF
:1010000000000100000001000000000000000000DE
:1010100000000100010001000000000000000000CD
:1010200000000100000000000100000000000000BE
:1010300000000100000000000100000000000000AE
:10104000000001000100010001000000000000009C
:1010500000004601A600D30093010401E200F6005F
:101060000400050006000700080009000A000B0044
:101070000C000D000E000F001000110012001300F4
:041080006162620047
:107E0000112484B714BE81FFF0D085E080938100F7
:107E100082E08093C00088E18093C10086E0809377
:107E2000C20080E18093C4008EE0C9D0259A86E02C
:107E300020E33CEF91E0309385002093840096BBD3
:107E4000B09BFECF1D9AA8958150A9F7CC24DD24C4
:107E500088248394B5E0AB2EA1E19A2EF3E0BF2EE7
:107E6000A2D0813461F49FD0082FAFD0023811F036
:107E7000013811F484E001C083E08DD089C08234E0
:107E800011F484E103C0853419F485E0A6D080C0E4
:107E9000853579F488D0E82EFF2485D0082F10E0AE
:107EA000102F00270E291F29000F111F8ED06801E7
:107EB0006FC0863521F484E090D080E0DECF843638
:107EC00009F040C070D06FD0082F6DD080E0C81688
:107ED00080E7D80618F4F601B7BEE895C0E0D1E017
:107EE00062D089930C17E1F7F0E0CF16F0E7DF06D8
:107EF00018F0F601B7BEE89568D007B600FCFDCFD4
:107F0000A601A0E0B1E02C9130E011968C91119780
:107F100090E0982F8827822B932B1296FA010C0160
:107F200087BEE89511244E5F5F4FF1E0A038BF0790
:107F300051F7F601A7BEE89507B600FCFDCF97BE46
:107F4000E89526C08437B1F42ED02DD0F82E2BD052
:107F50003CD0F601EF2C8F010F5F1F4F84911BD097
:107F6000EA94F801C1F70894C11CD11CFA94CF0C13
:107F7000D11C0EC0853739F428D08EE10CD085E9AC
:107F80000AD08FE07ACF813511F488E018D01DD067
:107F900080E101D065CF982F8091C00085FFFCCF94
:107FA0009093C60008958091C00087FFFCCF809118
:107FB000C00084FD01C0A8958091C6000895E0E648
:107FC000F0E098E1908380830895EDDF803219F02E
:107FD00088E0F5DFFFCF84E1DECF1F93182FE3DFCA
:107FE0001150E9F7F2DF1F91089580E0E8DFEE27F6
:047FF000FF270994CA
:027FFE00040479
:00000001FF
